:020000040800F2
:2000000050240020057D0108000000000000000000000000000000000000000000000000C1
:200020000000000000000000000000000000000000000000000000000000000000000000C0
:200040000000000000000000000000000000000000000000000000000000000000000000A0
:20006000000000000000000000000000000000000000000000000000000000000000000080
:20008000000000000000000000000000000000000000000000000000000000000000000060
:203F0000DD437628FFFFFFFFFFFFFFFFFFFFFFFFFFFFFFFFFFFFFFFFFFFFFFFFFFFFFFFFFF
:203F200047444200FFFFFFFFFFFFFFFFFFFFFFFF466C617368444C00FFFFFFFFFFFFFFFF4A
:203F4000466C617368425000FFFFFFFFFFFFFFFF4A466C61736800FFFFFFFFFFFFFFFFFFBA
:203F600052444900FFFFFFFFFFFFFFFFFFFFFFFFFFFFFFFFFFFFFFFFFFFFFFFFFFFFFFFF7E
:203F8000FFFFFFFFFFFFFFFFFFFFFFFFFFFFFFFFFFFFFFFFFFFFFFFFFFFFFFFFFFFFFFFF41
:203FA000FFFFFFFFFFFFFFFFFFFFFFFFFFFFFFFFFFFFFFFFFFFFFFFFFFFFFFFFFFFFFFFF21
:203FC000FFFFFFFFFFFFFFFFFFFFFFFFFFFFFFFFFFFFFFFFFFFFFFFFFFFFFFFFFFFFFFFF01
:203FE000FFFFFFFFFFFFFFFFFFFFFFFFFFFFFFFFFFFFFFFFFFFFFFFFFFFFFFFFFFFFFFFFE1
:2060000050240020057D0108CFAF00084BC7000800000000000000000000000000000000C1
:20602000000000000000000000000000370101080000000000000000A1D70008F578010829
:20604000931301086F230108233F01081F4A0108E36C01083B72010833780108D77C0108FB
:20606000E37C0108297D01082B7D01082D7D01082F7D0108317D0108337D0108357D0108C5
:20608000377D0108397D01083B7D01083D7D01083F7D0108417D0108437D0108457D0108E0
:2060A000477D0108497D01084B7D01081F740108254601084D7D01084F7D0108AFC800083C
:2060C000FFFFFFFFFFFFFFFFFFFFFFFFFFFFFFFFFFFFFFFFFFFFFFFFFFFFFFFFFFFFFFFFE0
:2060E000FFFFFFFFFFFFFFFFFFFFFFFFFFFFFFFFFFFFFFFFFFFFFFFFFFFFFFFFFFFFFFFFC0
:20610000000000000000000000000000000000004A2D4C696E6B204F422D53544D333246FD
:206120003037322D3132384B422D436F727465784D20636F6D70696C6564204F637420337C
:206140003020323039392031323A31313A313400436F7079726967687420323030332D3260
:20616000303232205345474745523A207777772E7365676765722E636F6D000000000000D7
:20618000F2B506000846F168884233D2002A23D03169884220D3776D00240025002F15D126
:2061A00015A18220800001F0D0FB070014D08221890001F089FC3800083038603069401CC1
:2061C0003061002D01D06F6000E077653D007F68641C0098A042E1D200983169884209D2FD
:2061E000776D002802D07F68401EFCD1002F01D03868F2BD0020F2BD564D53443A20526F3C
:206200006F7444697250617274000000F4B50C00836D016B4C430722072020400D00202D3B
:2062200005DA009F0126AE40761E3E40009600280CD02D18009E8640B446E6109E5D012763
:206240008740781E30406646304300906018024009D000986119C910595CD140A940014351
:2062600000910835AD1AED1DEA106946E010181801F02CFC0020F2BD78B51400066B714368
:206280000D00F11DCA10E910806D4118684601F01DFC00986907490FC8400090202E05DAED
:2062A00000980121B140491E0140009100982060002072BDF8B50600F0684002400900906D
:2062C00000255E4F6C010022610A3000FFF758FF00280AD03C4000190078002805D0E5285C
:2062E00003D06D1C00988542ECD32800F2BD7CB4040000200D78491C2E00203E13D0B61ECC
:2063000011D0083E0FD0761F0DD00B3E0BD0B61E09D0B61E012E06D91E3E04D0203E02D0F2
:206320002570641C401C5B1E904201D0002BE1D176BC7047F8B505005D20285C00287BD1E3
:20634000002900D13E49002A00D14022002B00D102232C0008342160227363600120A061DB
:206360000220E061267B2068801E6168401AA169401A711E88432062310001F0D5FB6062DC
:20638000812E00D3FEE72F4988420CDA0C21A1624843401EC112090D08180013401CE0629B
:2063A000012806D0FEE72849884201DA1021EEE7FEE700276763A0630220E06303202064F8
:2063C0006068C01C6064A06C002802D001F0F4FAA764E06C002605E04168009101F0ECFAFD
:2063E0000098761CA1688E42F6D3E764A760206D002801D001F0E0FA14A1E06A400201F0FC
:20640000A4FA2065002800D1FEE7E16A490201F059FB0122A06A8240083A00212800FFF730
:20642000F5FE0122A06A8240521E01212800FFF7EDFE5D3501202870F1BD0000FF010000E6
:2064400045550000F50F0000F5FF0000564D53443A2046415454626C00000000FFB59DB018
:2064600026982690002801D00021016027982790002801D0002101600020C0430090002069
:206480001E9904E02E2A00D10090401C491C0A78002AF7D100990022D243914200D100906F
:2064A0000099461A08461E9908180490002E02D0401C0490761E0020029020A8007808218B
:2064C00008400CA908703FD13000009A04991E9B002A37D0092A35DA042802DB01200290E8
:2064E00035E01C78203C2DD0A41E2BD0083C29D0641F27D00B3C25D0A41E23D0A41E012C46
:2065000020D91E3C1ED0203C1CD05B1C521EE8D100281ED00A78203A14D0921E12D0083AA8
:2065200010D0521F0ED00B3A0CD0921E0AD0921E012A07D91E3A05D0203A03D0491C401EA9
:20654000E8D106E0012002900098412875DA412E73DA002003901F9800282FD01D98C56A68
:206560000024002701AA21001D98FFF785FE019800281DD12F1B00D003941D98007D410201
:206580001F984018401E01F0E3FA0990874254DB1D98C46A641E0DAA21001D98FFF76CFEDD
:2065A0000D98002808D10998201A401C039005E0641CAC42D6DBE0E7641EECD1029800289F
:2065C00000D1F2E000988019401C0B900446002E00D0641C05AA1A21600001F00DFC059946
:2065E000002900D0401C401C0A901D98C0684002400902900020019000250298002816D0D8
:206600006F010022790A1D98FFF7BAFD00280ED0F905C90D40180078E52804D0002806D07A
:206620000198401C01906D1C02988542E8D302980199401A0A99884202DA0020C0434AE10A
:2066400020220B2106A801F01FFA0098002809D00246062A00DD062203461E9906A8FFF75A
:2066600046FE040006A800197E21017031214170002E0AD00324032E00DC34003300220033
:20668000049906A80830FFF732FE06A800210278002A09D01300613B1A2B01D2203A027072
:2066A000401C491C0B29F2D106A800250B21802201E0EB0702D42B065B0E02E02B065B0EC2
:2066C000134304781D19401C491EF2D10A98401E029001900B9C002E00D0641C1E9807190E
:2066E0007F1E0EAE20210EA801F0EEF9FF221A2116A801F0C9F90598002801D0044600E0E5
:206700001A240020059016A80019801E397801707F1E00214170A41E801E002CF6D10A2201
:2067200016A9701C01F0D2F90C2216A90A3130000E3001F0CBF9042216A9163130001C305F
:2067400001F0C4F90F20F07275730198307001980299884203D130784021014331701D9864
:20676000FFF7A8FD44010122610A1D98FFF708FD002806D020220EA9E305DB0DC01801F06B
:20678000A5F90198401E0190ACD120210EA801F09BF9032206A908313000083001F0AAF9D1
:2067A00006A80EA90CC80CC142E020220B2106A801F06AF90CA800780028009C09D00B2C41
:2067C00000DD0B24009B22001E9906A8FFF78FFD24E0082C00DD0824009B22001E9906A8A6
:2067E000FFF785FD002E0AD00324032E00DC340033002200049906A80830FFF778FD06A8C0
:2068000000210278002A09D01300613B1A2B01D2203A0270401C491C0B29F2D120210EA898
:2068200001F052F90B2206A90EA801F063F90EAE00203082F081707320A80078F0721F9802
:2068400015900398011489B23000143001F04DFA039989B230001A3001F047FA0020708267
:20686000464830830020F0821D98FFF723FD44010122610A1D98FFF783FC002806D020223D
:206880000EA9E305DB0DC01801F020F91F98002820D0099C03990D191D98C06AA8420FDBA6
:2068A0004E1C012C05D101221D98006B8240521E00E032001D98FFF7A9FC3100641EEFD121
:2068C0002698002801D0039901602798002801D06D1E0560002021B0F0BDF0B585B0284C70
:2068E0000C34E06C002801D001F066F8606C0027002802D001F060F86764A06C002504E0AE
:20690000466801F059F830006D1C61688D42F7D3A764676060211A4801F0D6F800F02CFCE0
:2069200017485C300121017020680501002674010022610A1248FFF723FC00281AD0E105BC
:20694000C90D41180878002811D0E5280FD0C87A8006800E0F280AD001A80CC90CC00322BD
:20696000684601F0C7F801A807726846C770761C6D1EDCD1002005B0F0BD000072450000AF
:2069800038190020F0B585B00C0011000022490AFFF7F6FB070016D110260025E07A80060A
:2069A000800E0F280DD001A806CC06C0083C032221000831684601F09DF801A8057268462F
:2069C000C570761EEAD11026002520222100380001F02CFB002829D000203978002901D039
:2069E000E52900D10120E17A8906890E0F291DD000280DD101A806CF06C0083F0322390002
:206A00000831684601F076F801A805726846C57001A806CC06C0083C03222100083168467B
:206A200001F068F801A805726846C57020372034761ECAD105B0F0BDFFB583B0092110465F
:206A400001F040F80421069801F03CF80C9F002F01D0002038600D980D90002801D0002166
:206A600001600498022870DB0398C068000101900024002861D065010022690A0398FFF746
:206A80007FFB002803D105980021017055E0E905C90D4618F07A8006800E0F2849D0307884
:206AA000002846D0E52844D0758B002D41D000E005466A4629000398FFF7DEFB012003990E
:206AC000096B8840401E00990140814202D000980028EDD1708B049981422ADB8D4228DBFD
:206AE000002F00D0386008223100059800F0EEFF032231000831069800F0E8FF0020059968
:206B00000A78202A03D1059900220A5403E0401C491C0828F4DB002006990A78202A03D1B5
:206B2000069900220A5408E0401C491C032804DAF3E7641C019884429DD30598007800281E
:206B400003D00D98002800D0066007B0F0BD70B584B006000800150034002C34626990424E
:206B600028D3A1685318984224D2801A00906A4601F042F90098400200900098A16849027A
:206B8000884206D2802292002900E36A181800F09DFF5C20012131542468002501AA290045
:206BA0003000FFF769FB6D1C641EF7D15C360020307001E00020C04304B070BD70B5060016
:206BC0000C00E92020700822BB49E01C00F07EFF8021890020000B3001F087F825000D351D
:206BE000307D2870316A89B220000E3001F07DF80220E870F068010189B22000113001F055
:206C000074F8B16880204002814205DA89B22000133001F06AF803E02000203001F073F8CB
:206C2000F8202872716B89B22000163001F05DF8FF212000183001F058F83F2120001A304C
:206C400001F053F88020E875292068769B492000273001F058F80B2281A120002B3000F07E
:206C600035FF0A2281A12000363000F02FFFFF204000201855210170AA21417070BD0000C7
:206C8000F8B507000D0016003C6D002C05D02068854202D36068A8421FD2102276A1300033
:206CA000083001F0C3F90090042200BF77A13000543001F0BBF901000098014314D1002C1B
:206CC00008D100BF73A1D420400000F03EFE04000AD03C652560786860602068854205D1DF
:206CE00080223100083409E00020F2BDC01D854207D190225200E03631008834200000F03A
:206D0000E5FE0120F2BDF4B588B004000D00E16C8D4201DA002004E0681A217D00F004FFC0
:206D2000801C029000200190009003AB04AA02992000FFF781FE6846007C002803D1684684
:206D4000007B00282FD0E669002701E010367F1CA06B874227DAF0680028F7D002998142DF
:206D6000F4D3B168227D019200900812C00D40184012019900F0D8FE0100009840180299F4
:206D80008842E3D3002E0ED0F068022801DA002004E0801E01994843E16C4018281A40021A
:206DA000B168884202D30020C04326E00A1A87498A4200D34A1E7168002904D00918089860
:206DC00000F084FE18E0824B5B6E1C003568A826B600A619B5420BD1B024A400CD0069181E
:206DE0008900591809590918089801F099F903E0491C24340329EAD3002009B0F0BD00984C
:206E000073490B601818401E4860704770B504000E00C94DCA208000696E08180021017717
:206E200064210160FFF759FD1C223100C3208000E3001B1B9B006C6EE318181800F046FE61
:206E400070BDC5229200C300181A8000BA4B5B6E1818801802680A608088888070470000E6
:206E60004E4F204E414D4520202020004641543132202020202000004D6163204F5320588B
:206E800020202020202020200000000041545452000000004D53445F4170706C65446F755A
:206EA000626C65496E666F0000E000BFA248406E10600120704700001C7701086745230128
:206EC000F0B583B00F00140072B641485C300190CA2080000199896864220A5062B6802656
:206EE000B6003100200000F0EDFD394D0C35696B8F4204D221003648FFF760FE62E0E86BE7
:206F0000874224D2781A0090A96A4F026A4600F073FF0098400200900098B84205D2320015
:206F2000E96C0918200000F0D1FD2C6A0026002501980078002845D002AA29002448FFF797
:206F40009BF96D1C641EF7D1019806703AE0296841188F420ED20022391A1D48FFF710F92D
:206F6000002804D13100200000F0ACFD2AE0320001001EE0686C019000281ED00568E81D02
:206F80000090002D19D0AF4217D3B84215D33100200000F097FDAF4203D18022019908317F
:206FA00007E0009887420DD19022520001998831E034200000F08AFD04E02200390004481E
:206FC000FFF7A1FE002003B0F0BD00000102000038190020F0B589B00E00170072B6564C5B
:206FE000CA208000616E64220A5062B6E16C8E4206DB701A217D00F097FD811C022928DAEC
:207000003A0031002000FFF7A2FD002800D490E0A06C864200D28CE0E1684218964200D384
:2070200087E0351A8D4200D383E0012229002000FFF7A6F806006A0239002000FFF7A2FC36
:20704000002E76D0802292003900300000F03EFD6FE004A8019005A8009003AB06AA2000AD
:20706000FFF7EAFC6846007EE52862D06846007E002807D0082200BF30A106A800F0D6FF71
:20708000002856D03A0031002000FFF7F9FD00284FD1049800281DD002A80021016004986A
:2070A000029002A801900298007800281DD003220299083103A800F01DFD002003A9C8702A
:2070C00003220B78202B00D10870491C521EF8D11DA502E0019008E02D1D2868002828D0BF
:2070E00003A900F06AFE0028F6D1A64820660125D0208000616E0D506802009033003A0000
:207100002100019801F03AFBCB218900626E51189D4A126A0A6000224A61002809D001281D
:2071200003D0022801D101F0F7FBD1208000616E0D54002009B0F0BD3819002053595354B2
:20714000454D7E31000000002C7601083076010834760108387601083C76010840760108B0
:2071600044760108487601084C760108000000000120704770470000F0B589B083498448B5
:207180008160402202750224C4600223FFF7D2F86021902080007E4A526E101800F094FC25
:2071A0000020009000F0E4F97949496E902292008A1800BF7AA313607CA353609A23936022
:2071C000012600282DD173481061734850611B20906102267149002001900090282300220E
:2071E0006B48FFF73BF9902080006949496E0C186748C4618663012E11DB216800290BD090
:207200000020019020000C3000902123A2686048FFF724F9002802D41034761EEDD109B07B
:20722000F0BDCD2080000858002819D50021C943884203D0FE21C943884211DA82A111617F
:2072400000F0BAF995218900514A526E5118086000F0C7FD962189004D4A526E505002260D
:207260006C21A82080004A4A526E101800F02CFC0024BE4F46E003988021890188427AD272
:20728000049980229201914275D2059A89188022920191426FD2C6490D1A1D2D00D31D25E4
:2072A0002A00C44941188C46A8239B00E000001980003749496E0818C018614600F030FF98
:2072C000E000001980003249496E0818A82189004219002353540499B64A8918B0229200CA
:2072E0008150902189003201294B5B6E9A185118A82292008018086000204860059888604F
:20730000641C761C80208001C01B102833D3062E31DA032C2FDA1022390002A800F000FFA6
:2073200010370298002826D0B5498842A3D0891C8842E7D103988021890188421BD20499D2
:2073400080229201914216D2059A891880229201914210D296490D1A0B2D00D30B252A00A8
:207360009449411806A800F0DBFE06A80021415501200090C6E70098002800D12AE706A94C
:2073800029E70000787C0108D0010020455500003819002028770108447701083C770108BC
:2073A0005365676765722E68746D6C003C68746D6C3E3C686561643E3C6D65746120687473
:2073C00074702D65717569763D22726566726573682220636F6E74656E743D22303B207588
:2073E000726C3D68747470733A2F2F7777772E7365676765722E636F6D2F70726F6475636E
:2074000074732F64656275672D70726F6265732F6A2D6C696E6B2F6D6F64656C732F6A2DAA
:207420006C696E6B2D6F622F222F3E3C2F686561643E3C626F64793E3C2F626F64793E3CEC
:207440002F68746D6C3E00006661696C2E7478740000000070B5AA4C606E002800D184E09A
:20746000CF2189004058002800D17EE001F0E8FF8007800F022878D103F096F9A148616E09
:20748000085C00283AD0002003F05AF8002822D19D48006ACC218900626E5158401AFA2123
:2074A000C900884261DB02F017F9FA20800003F02CFB01F055FACA208000616E081800218D
:2074C000017764210160FFF708FA002003F046F801F04AFC0EE001F043FACA208000616E79
:2074E00008180021017764210160FFF7F6F9002003F034F88348616E00220A54824D286A4E
:20750000CA218900626E51180A69002A00D108610A69831A0A2B28DB0B7F002B25D08B6901
:20752000002B22D14B68C31AFA26B600B3421CDB0B681B1A9A180A6008610868012814DA27
:2075400001F0EAF901F009FACD218900626E5050002002F0EAFFCC208000616E0818012104
:207560004175296A01600021816070BD0808000000B583B004225102684600F0D1FD0098BD
:20758000002802D06149884201D300200EE004220849684600F0C4FD5D48019004226946BA
:2075A00001A800F043FD401E8041C00F03B000BDFC1700000408000038B500BF11A100E037
:2075C00008314D68002D03D00A688242F8D100E053A5504C2068002805D100BF55A180206F
:2075E00000F0B3F920602068002806D02B0000BF54A2802103F060FC2568280032BD000075
:2076000001777553FFFFFFFF2077000800FFFFFF78760108FFFEFFFF88760108FEFEFFFF9F
:2076200098760108FDFEFFFFA4760108FCFEFFFFB4760108FAFEFFFFC4760108F8FEFFFFBF
:20764000D0760108F6FEFFFFDC760108F5FEFFFFEC760108F3FEFFFFFC760108F1FEFFFFDB
:207660000C770108000000000000000030B58FB0D224A40046A1200000F067F905003CD058
:20768000210000F01FFA1E4C656601AD40200090002300220221012001F0D0FA28704020B1
:2076A0000090C000616E0B1800220221002001F0C5FA687001A802F0C1FEFFF70EF93021F3
:2076C00002A800F001FA00BF35A002901248059002A880218900018239A00D9002A802F097
:2076E00007FF0E49002002F045FFCA208000616E081864210160012141610FB030BD000028
:207700003819002045030000D001002001180000564D5344A019002045550000FF6D000885
:20772000556E737065636966696564206572726F72000000564D5344206572722062756690
:20774000000000002573202868747470733A2F2F77696B692E7365676765722E636F6D2F83
:207760004A2D4C696E6B5F647261675F616E645F64726F705F70726F6772616D6D696E675F
:20778000234572726F725F636F64657329000000564D53443A20436F6E74657874000000AD
:2077A0000D6E0008436E0008AB6E0008C16E0008A96E0008D56F00087171000875710008F2
:2077C0005076010858760108647601086C76010818B40022426001608E490A68002A02D1FE
:2077E000086011BC70470A0000E0221D1468002C01D0A042F9D24460106008680028F0D0E2
:2078000000E0080041680029EBD0026883188B42F7D14B684360096851180160F2E7914816
:20782000406870478F488068704770B505000C008C4E30000C3003F092FB002D01D17068A0
:2078400001E028682818316800E0496800290BD08142FAD1002807D0016840187168B26808
:2078600089188842EFD100200021002200230EC40C3C002806D020600168616040680028C5
:2078800000D0A0600C36300003F089FB70BD80B574480C3003F063FB01BD80B571480C309C
:2078A00003F07DFB01BD38B55A4C20000C3003F056FB00250020216804E00A68904200D2A4
:2078C000100049680029F8D1092801D30500083D0C34200003F063FB280032BD70B50600B3
:2078E000604C20000C3003F03AFB20000C3003F036FB00200025F61D07218E430836220027
:2079000000E00A1D1168002915D00B689E4208D20D00891911602A68921B0A606A684A6067
:2079200004E0B342EDD10D0049681160002D02D02E606860083520000C3003F030FB0C3435
:20794000200003F02CFB280070BDF8B504000F00444D28000C3003F002FB28000C3003F09C
:20796000FEFA0026E41D072084430834290000E0011D0868002815D00268944208D20600FA
:20798000001908603168091B01607168416004E0A242EDD1060040680860002E02D034609E
:2079A0007760083628000C3003F0F9FA0C35280003F0F5FA3000F2BD38B50400294D2800AF
:2079C0000C3003F0CCFA002C04D0083C21682000FFF7FEFE0C35280003F0E1FA31BD70B589
:2079E00004000E001F4D28000C3003F0B8FAF61D072086430836083C2068B04204D02660A7
:207A0000811BA019FFF7E4FE0C35280003F0C7FA70BD0000F40C002038B50500114C200060
:207A20000C3003F09CFA2868002803D008380168FFF7CEFE002028600C34200003F0AFFAE7
:207A400031BD70B505000C00064E30000C3003F070FA756007208443B46021002800FFF7CF
:207A6000B7FE70BDF40C00201206130A1A43130C1A4300BF094205D083070BD00270401CE4
:207A8000491EF9D1704700001206130A1A43130C1A4300BF130030B414001500103902D3F3
:207AA00010393CC0FCD2490700D30CC000D504C0890002D30280801C002900D5027030BC53
:207AC000704700000022D5E70022E3E7124207D08B0706D00B78491C0370401C521EF7D89C
:207AE0007047830706D00B78491C0370401C521EF9D1704770B4103A03D378C9103A78C0C0
:207B0000FBD2530701D318C918C001D508C908C0D20704D30B880380891C801C002A01D53B
:207B20000B78037070BC7047CA0F00D0494203105A400DD004B500D3404200F009F8009A15
:207B4000D20701D34942124200D5404204BD0000094210D088420BD30122002300185B41B4
:207B60008B4200D35B1A5241F8D319001000704701000020704708B503F028FA08BD38B457
:207B8000012100220368001D002B0BD00468001D0C4202D04D466D1E64192260241D1B1FD2
:207BA000F0D0FAE732BC704701003039C9B20A2901D23038704701006139C9B2062901D25D
:207BC0005738704701004139C9B2062901D2373870470020C0437047016800E0491C0A7837
:207BE000202AFBD0092AF9D00D2AF7D00A2AF5D0016070470106020A1206120A0A430102CE
:207C0000090E09021143000E08437047002A00D1704738B40B68091D1D061C0A2406240A06
:207C20002C431D022D0E2D0225431B0E2B430360001D521EEED131BC70470000CA0882188E
:207C40004807400F9107C90E4118032082431068002906D0C840030050682022511A884027
:207C60001843704738B4D308C0185207520F8307DB0ED21803239843002A0FD0012393403B
:207C80005B1E04681C400D00954025430560001D04689C4320239A1AD1402143016031BCD2
:207CA0007047010C4140080A4840010941408808484041084140C807C00F70470268117038
:207CC000090A5170921C0260704702681170090A5170090A9170090AD170121D026070479A
:207CE0000A0A0270401C017070470170401C090A017070470A0E02700A0C42700A0A82701A
:207D0000C01C017070470170090A4170090A8170C01C090A01707047010006D0002001E037
:207D20004908401CCA07FBD570470020C04370470178427812020A43817809041143C0783E
:207D400000060843704770B504000E001D00D00705D5521C30782070641C761C6D1E90073C
:207D600016D5022D14D330787178090201432000FFF7B6FFA41CB61CAD1E09E03000FFF7EB
:207D8000D7FF01002000FFF7B5FF241D361D2D1F042DF3D2022D0BD330787178090201437F
:207DA0002000FFF79DFFA41CB61CAD1E022DF3D2002D01D03078207070BD0278401C412A1C
:207DC00002DB5B2A00DA20320B78491C412B02DB5B2B00DA2033002A01D09A42EDD0D01AB3
:207DE0007047010000200A78491C02E00A78491C401C002AFAD1704778B403000020002480
:207E000080252D0601E03100641C294202D14E00B342F8D2002C09D440008B4203D35B1A4C
:207E20000500012028434908641EF5D5002A00D0136072BC704780B56A46FFF7DDFF009873
:207E400002BD80B50022FFF7D7FF02BD80B5002807D5002243421800FFF7CEFF010048423B
:207E600002BD0022FFF7C8FF02BD002800D17047F0B58B185B1E0125072401220E0026404C
:207E8000B240521ED2B21C40641CA5406D1EEC43E4B2C908DD0843181E78A94204D114432D
:207EA000E04330431870F0BDD74337431F7040190278E64316430670691A491E03D0FF222B
:207EC000581CFFF7D1FDF0BD002800D1704770B58A18521E0125072401230E002640B340FA
:207EE0005B1EDBB21440641CA5406D1EEC43E4B2C908D50842181678A94203D11C4334404B
:207F0000147070BD33401370401903781C400470691A491E02D0501CFFF7D4FD70BD0021D9
:207F200001E0491C4000002800D4FAD11F20401A70470278401C0B78491C002A01D09A420F
:207F4000F7D0D01A704718B40300002A09D01C005B1C24788C4202D0181A401E03E0521E35
:207F6000F5D10020C04312BC704780B5FFF7EBFF0021C943884201D1012002BD002002BDF6
:207F8000F8B504000F002068009000256846FFF723FE0026009800782B2802D10098401CCF
:207FA0000090009800782D2803D10098401C0090012600980078302819D100994978782900
:207FC00001D0582913D10098801C00900078FFF7EBFD002810D40099491C009129010D1867
:207FE00000980078FFF7E0FD0028F4D515E001003039C9B20A2902D30020C043F2BDA90050
:20800000491949004518303D0098401C0090007801003039C9B20A29F1D3002E01D02800EC
:208020004542009820603D600020F2BD18B402E0401C491C521E002A09D00B7804789C4276
:20804000F6D002D20020C04302E0012000E0002012BC704708B4024B9C4608BC6047C0467F
:208060000304002010B582B00024009401220021684600F055F80098042801D3FF284CD11F
:20808000009401220121684600F04AF80098032801D3FF2841D100940122AF21684600F032
:2080A0003FF80098FF2838D1009404220421684600F036F80098022803D30021C943884287
:2080C0002BD1009401220D21684600F029F80098FF2801D0012820D1009401228821684648
:2080E00000F01EF80098032801D3FF2815D1009401228921684600F013F80098022801D336
:20810000FF280AD1009401229A21684600F008F80098652803D3FF2801D002F061FF13BD38
:20812000F0B506000C001500002E1ED0002D1CD060197A49884218D2480984420FD2001B3B
:208140002F00854200D907003A00880321183000FFF7BCFCF619ED1BE419002D05D02A002D
:208160006F4821183000FFF7B1FCF0BD80B502F037FF002002BD80B5002002F053FF694809
:208180000178022901D00021017001BD10B5040004222021FFF7C4FF04222421200008306E
:2081A000FFF7BEFF0422402120000C30FFF7B8FF0422482110342000FFF7B2FF10BDF0B570
:2081C000C1B00C00150000280AD0002D47D0070080208001844203D260195049884202D353
:2081E0000020C0433CE0FF2C1ED880204000061B864200D90600AE4200D92E003200390015
:208200006846FFF763FC00233200694644482018FFF720FFBF19AD1BA419FF2C02D8002DEF
:20822000E3D11CE0002D1AD0FF20C0432418FF20801C854201D3461E00E02E0032003900E6
:208240006846FFF743FC00233200694636482018FFF700FFBF19AD1BA419002DE7D100202A
:2082600041B0F0BD30B595B0040007D0002901D1002015E08025AD01A94202D00020C04318
:208280000EE06846FFF782FF02F0AAFE2A0000212000FFF794FF04006846FFF76CFF20000A
:2082A00015B030BD002800D1704710B5002A0FD08B18FF24A41CA3420AD2631E994207D212
:2082C0005B1A9A4200D91A00184BC918FFF7FEFB10BD10B5C0B080246400A14201D1002840
:2082E00002D10020C0430BE0220001006846FFF7EDFB0023220069460C48FFF7ABFE0020E7
:2083000040B010BD002802D0012803D07047084801607047064841607047000001200000C4
:20832000004000084722002000410008003F000800010020F8B506000F000024002501228D
:20834000290050316846FFF7EBFE68460078FF2807D068460078002803D0641C6D1C202D4B
:20836000EDD3202C00D10024002E0DD000203070BC4201D37D1E00E025002A0050213000F4
:20838000FFF7CEFE002070552000F2BD02000020002900D1704718B4491E1378521C1C004C
:2083A000303C0A2C07D2303BDBB20001C0180029F2D112BC70471C00613C062C01D2573BB0
:2083C000F2E71C00413C062C01D2373BECE787488749C1620020ECE7F3B589B0170005E04F
:2083E00000983F1A0A98009940180A90002F23D02020202F00DC380000900446099E01AD6B
:2084000002213000FFF7C2FF28706D1CB61C641EF6D1009840000999081809907348C06AFE
:20842000002809D1012301AA00990A9804F068F80028D5D56D49C8620BB0F0BDF0B587B0E6
:208440000020049069481830019006688468270001E0761C641E002C08D030782028F8D0AC
:208460000928F6D00D28F4D00A28F2D0002C00D17CE0092C00D279E03078761C3A285ED194
:20848000009602213000FFF781FF05000421B01CFFF77CFF05900221B01DFFF777FF039092
:2084A0000836093C681C4000844201D23C005DE00398062802D30A3805281DD22F1D009883
:2084C00002900020009002210298FFF75FFF0100009840180299891C02917F1EF2D1C14321
:2084E000491CCFB2022168003018FFF74FFF874202D001989E4976E003980E2871D801A152
:20850000095C8F440E38404E984EDCDCDCDCA6C24ED24E000198008B002803D0992109023F
:20852000884217D12A000198C0680004019909694018059941183000FFF74EFF0AE00120C1
:208540000490002412E069003000FFF71FFF00010199086168003618B61C801C241A0198C5
:208560004069002802D1002C00D070E701984569002D11D1002C07D0006822000199896896
:20858000091B411804F0CEF8019884600498002802D0012501980577280007B0F0BD690061
:2085A0003000FFF7F3FE0199C860D3E704213000FFF7ECFE99210902884202D0C91C8842E3
:2085C0000FD101990883C5E70198008B002808D0019800210183BDE70198008B6549884248
:2085E000B8D0019802494161C0E7000000190020F8FEFFFFF0B585B0002004905E4818301D
:20860000019006688468009401E0761C641E002C08D030782028F8D00928F6D00D28F4D03A
:208620000A28F2D0002C00D188E03778761C002F01D0FF2F03D10120049000247EE0042C37
:208640007CD3532F13D13778761C02213000FFF79DFE0500B61C241F6800844201D2009C89
:208660006CE0380030380A2801D2342F02D10198A84920E00395B01E02900020009002217E
:208680000298FFF783FE0100009840180299891C02910399491E0391F0D1C143C9B200919D
:2086A000022168003018801EFFF770FE0099814203D001982E49416140E0312F04D030D3AD
:2086C000332F1FD00FD32CE004213000FFF75EFE0100361DED1E2A003000FFF77DFE680022
:2086E0003618241F20E006213000FFF74FFE0100B61D2D1F2A003000FFF76EFE68003618BD
:20870000A41F11E008213000FFF740FE010008366D1F2A003000FFF75FFE68003618083CA6
:2087200002E06800801E3618241AB61CA41E01984069002802D1002C00D064E70198456966
:20874000002D11D1002C07D00068220001998968091B411803F0E6FF01988460049800285C
:2087600002D0012501980577280005B0F0BD0000F5FEFFFF0399000000190020F6B583B0BE
:208780001E0000200090824C3320205C002810D1A06900280AD172B681A17E48FFF7D5F886
:2087A000A06162B6002801D10120E06233200121215404980190E06A002800D095E0342021
:2087C000205C002803D02068B04200D293E03620205C002808D02069B04202D26069B04287
:2087E0001BD23620002121540A9D2A0000210498FFF7BBFB002816D00120E169002903D1F0
:2088000000903521605466603621605403980068206103984068606167E0864220D13634FB
:20882000002020701CE001980078E16900291AD12186342100226254532801D1022702E0F1
:208840003A2807D10327049A2900380003F029FF002807D5362001212154039840686061A5
:20886000002055E0E7613520205C002804D101203521605466600090E660A0684019A06065
:20888000002D32D0206A43490F1AAF4202DA002F01D10DE02F003A000199A3691818FFF77A
:2088A00015F9206AC01920620198C0190190ED1BE06A002802D00021216211E0E06902286E
:2088C00005D0032807D13000FFF7B8FD08E03000FFF790FE04E03048E062002020622E4893
:2088E000002802D40128CBD12660E06A00280DD1009800280BD12068002808D0A1686268E8
:20890000801A401C4002814201D302200090009805B0F0BDF8FEFFFF10B51D4C1C34E07D0D
:20892000002819D02069A17D002915D10121A175002809D01849884202D01849884201D13D
:2089400003F097FE206910BD03F048FE010001D5206110BD0020206010BD0D48C06A704738
:2089600038B50B4D2C001834E07E00280ED003F0AEFE2068002803D072B6FFF71DF862B669
:2089800038212800FFF7A0F80020606031BD00000019002012020000F6FEFFFFF5FEFFFFCA
:2089A000564D53443A204461746146696C654C696E65427566000000FBB582B01700C100CA
:2089C000081AC0009B490E1803F012FF08203056012806D10224E44303F001FF200005B0E4
:2089E000F0BD9548007A8007800F022801D00024F1E7306900281DD10A9D306A00280AD173
:208A0000280010218843022801D00124E3E73A000120002448E0707EC107C90F68460170F4
:208A2000039800280CD1002F0AD1E8070AD5706A002801D00324CEE700249F4803901EE073
:208A4000002F02D16846012101703A00039930001C3000F09FF90400381B05D0A80701D449
:208A6000002014E0002C0AD0684600780028B3D0306A716A401A31888842ADD314250020E0
:208A8000A90704D501203188B94200D20F00690706D56946097800299ED00022039203E0EB
:208AA0000399091903913A1BB0767261039830610020F076604BF8331888401C1880708109
:208AC00018203056002809D1A80600D5002201203076039902985B69DB6A9847E80600D589
:208AE0007AE703F07CFE71890498002810D00A000146029803F05FFE00280CD0A80604D445
:208B00000021029800F02FFE05E00020306102E0029803F041FE70693C1A4748007A80077A
:208B2000800F022800D159E70024E44356E70100C868022801DB401E00E000200A001C32F6
:208B4000897E012905DB5368C0180832491E0129F9DA704718B401001C31847E641E012C51
:208B600005DB0A0008320CCA0CC1641EF9D1817E491E817611BC704738B50C00456B04E074
:208B8000A96820006A6890472D68002DF8D131BDF7B505007E480768002000902648007806
:208BA000082840D2C100081AC00022490C1800F067FD0200297A286800F0FEFC0600E87967
:208BC000297AFB6C1A0002D03200984701E07A689047070027D0FF2F25D038212000FEF765
:208BE00073FFE979C9013943E171287AA071E879002803D10198E061029820622680668077
:208C0000A888A0800C4800780090401C0A490870102F08D2982040007900EA798918064AA3
:208C20005118009A0A54009803B0F0BD704780204000704758110020D8130020F4B584B01C
:208C400004000D001F000A9E022D03D0032D08D1402007E000F014FD400000BF09A1085ADE
:208C600000E00020694600228A71CC710D726A46128A8A800090320039006846FFF788FFF0
:208C800005B0F0BD4000000200040000410601D1002070470107C90E000600D5491C982065
:208CA0004000A64A5118085C7047C100081AC000A3490818C07970476015002070B59F48C0
:208CC0008621490044589E4D067803E038352800A1688847761EF9D1E068804770BD0000B5
:208CE000F8B5964CC42149002000FEF7EDFEC220400000BF16A1215001272770001F790255
:208D00002152FA2032212154FB200C2121542930B64921508A4DE02149002800FEF7D4FE68
:208D200003F014FD03F0A6FD8620400026581C3020180168002901D1AD490160706D010018
:208D400000D080470020716988472880E771F1BD53454747455220656D555342442056337F
:208D600036303032754C000038B5744C862040002558286880472A6C100003D02100103128
:208D800002209047102020722869804731BD0000E4140020F2B504001500002621E00029AA
:208DA00024D0E068411862688A4200D90A00171AAF4200D92F003A00216809180098FEF70A
:208DC00085FEED1BA068C01BA060F6190098C0190090E068C019E0606168884201D100202F
:208DE000E060A168002DDAD1002901D10020E0603000F2BDF2B5040015006068A168461A27
:208E00001CE0E068A16840186168884200D3401A4219914200D911000F1AAF4200D92F00B3
:208E20003A00009923681818FEF750FEED1BA068C019A0600098C0190090F61B002DE0D188
:208E40003000F2BD10B582B001240094FFF7B4FD16BD80B5102300930023FFF7ADFD02BD8C
:208E600010B582B0002B02D51424002300E002240094FFF7A1FD16BD80B5314BD861196238
:208E8000012098769A7500209882A3490968096B884701BD0000FEB50400284E307A80079E
:208EA000800F022801D0002009E0E000001BC00050490D1808202856002802D00220C043E1
:208EC00039E003F095FC29001C31A87E002818D0C200891808396A7ED2070CD54A680B68DE
:208EE0009B18009FBB4206D10198101848606846007AA8751BE0032802D10324E44317E060
:208F000008310098086001984860A87E401CA8766846007AA875F8363088401C3080688117
:208F2000E868002803D120007169096B8847002403F055FC200003B0F0BD0000D8130020B5
:208F400058110020F8B504001600E000001BC000284A10180022C3791B0623D500270500C9
:208F6000E868002802D1A87E00283CD02A766A89002912D0200003F01EFC002833D028002E
:208F8000FFF7D5FD0500002E03D00021200000F0EAFB002D27D0012725E01100200003F078
:208FA000FBFB20E000250269002A1BD0428900290CD0200003F0FFFB00280BD0002E03D035
:208FC0000021200000F0CFFB012503E01100200003F0E2FB5148007A8007800F022801D068
:208FE0000025ED432F003800F2BD00002F8C00082D8C000858110020F8B504000F00E00059
:20900000001BC00080490D18002603F0F1FBA87E032802D3002F04D5012603F0E0FB30002F
:20902000F2BD0120287603F0DAFB6A89002F07D03900200003F0BFFB002805D0012603E0F4
:209040001100200003F0A8FB00202876E7E7FBB505001600089F002F02D5FFF71CFF41E013
:209060006846037A320001992800FFF714FF04000320C043844225D0002C32D1390000205B
:209080000027EA00521BD2005F4B9A180092D268002A03D1009A927E002A1FD0009A107677
:2090A00000984289002915D0280003F084FB002814D00098FFF73BFD07000021280000F093
:2090C00052FB0BE039002800FFF796FF0028C7D0002007E01100280003F05EFBB74200D256
:2090E000F41B200003B0F0BD40010C4A10180164704741600949F4310A68026008607047FB
:2091000006494A7B042A06D292008A18FC321060487B401C48737047E4140020D8130020AF
:20912000F2B582B006001500F000801BC00036490C18002E0FD10024AC4F3E00787B844229
:209140005FD2FC203258100002D0290002989047641C361DF2E7E068002803D0290002980A
:20916000E268904701200090206900282CD061698D4201D22F0000E06769002F0DD03A00DF
:209180000299FEF7A3FCED1B0298C01902902069C01920616069C01B60616069002802D088
:2091A000A07E002810D06189300003F0E2FA00272761607EC00705D4300082490968896A14
:2091C0008847277609200090002D16D02A00029920001C30FFF70EFE617EC90702D52188F5
:2091E00088420AD218202056002806D0300075490968896A88470020207600992000FFF797
:20920000BBFC03B0F0BD000058110020F8B50600F000801BC00041490C18A07E00287CD070
:20922000002E02D0E068002877D10020E07527001C373868002808D07868002805D1A07EEB
:20924000022802D32000FFF785FC5E4803681D6D28001FD0A08A00906B463A00A17E3000D2
:20926000A8470099A182002802D50120E060F1BD0500401CE0602E0003E0361A2000FFF71D
:2092800069FC7868B042F8D3801B78603868801938601DE07D682088854200D90500681CD5
:2092A000E0602A00396830005B6B98477868401B7860386840193860002D15D02188481E09
:2092C000284011D1A68A2800FEF742FC3018A082206900280AD0A08A002807D02188484367
:2092E0002169491E014001D10020A0827868002813D1A07E022803D32000FFF72BFCF1BD33
:20930000002D08D0A08A002805D0A07D002802D00020A075F1BD0020A076F1BD58110020BA
:2093200038B50400E000001BC00091490D18002C0DD0E86802280ADB0020C043E86004218A
:20934000E87D002800D106212800FFF715FC0020E860A87E00280DD02000FFF757FFA87E34
:20936000032819D2287E002816D06989200003F000FA31BD200013490968896B8847002C5A
:2093800008D06989200003F0F4F940212800FFF7F3FB31BD03F048FE31BD80B5C200121A5E
:2093A000D200734B9A181172064A1268126A904701BD80B50121FFF7F0FF01BD0149086061
:2093C00070470000E4140020416082608B490A68130000E01B68002B03D08342FAD10120D0
:2093E000704702600860002070470000D813002010B4C400201AC0005D4C20184A608B6012
:20940000426B0A60416310BC704738B59B48017A0021417201220123554C403402E0217020
:209420005B1C38340578AB42F9D3C17A0A40C272017A102001400820084300F014F831BD11
:209440008E48007A704780B58C48017A0120084300F009F801BD80B58848017AFE20084080
:2094600000F001F801BDF0B583B00700834E347A8620400030580090BC424CD0A0071CD438
:20948000B8071AD5FFF71AFC012507E000212800FFF783FF280003F039FF6D1C30788542F9
:2094A000F4D30098006C002817D068460121017101A90020009A126C9047A0070DD5B8078F
:2094C0000BD40098006C002807D068460021017101A90020009A126C904737723C43062062
:2094E00020400BD001250024E44304E02100280000F039F96D1C30788542F7D3A8204000A7
:20950000345806E06268100002D03900A06890472468002CF6D103B0F0BD01000020574A74
:20952000127A9207920F022A05D1C800401AC0000F490818406A704710B5040003F058F99B
:20954000E000001BC0000A490818FFF7F0FA040003F045F9200010BDC100081AC0000449EB
:2095600008180169002901D0406970470020704758110020C100081AC00074490818817E28
:20958000002902D00020C0437047818A0269002A0BD0002907D0028851430269521E0A4038
:2095A00008D10021818200207047481E8041C043C00F70470120704718B44B005B185B006A
:2095C000634CE3189B1F9C8884420ED3022902D003290CD009E0082805D0102803D0202816
:2095E00001D0402801D1012A01DB002004E05100595A884200D9080012BC704728150020C4
:209600000A0E02700A0C42700A0A8270C170704701700A0A42700A0C8270090EC1707047CC
:209620000170090A4170704701780906427812040A43817809021143C0780843704701788E
:20964000427812020A43817809041143C07800060843704701780904427812020A438078BC
:2096600010437047010008780002497808437047017840780002084370470000D81300205A
:2096800080B55D48006880698047010701D5022002BD02210840401E8041C043C00F02BDFE
:2096A00080B55548006880698047410701D5022002BDC107C90F481E8041C043C00F02BD69
:2096C000184A5078411C51707047C200101AC0001E4A1018C160704738B503F089F8114CB9
:2096E000862040002058806C010000D080478E2040002058010000D08047217AE92008409E
:20970000FFF7B1FE002504E00121280000F02BF86D1C2078EDB28542F6D303F060F831BDB5
:2097200000000000D813002081600021416034490A68130002E0834204D01B68002BFAD185
:209740000260086070472F490860704758110020F07C010800E000BFC200101AC0002B4A33
:20976000101841767047F8B504000E0022480768E000001BC00024490D18002E01D500204A
:209780002872002C2DD003F033F8E879000608D52000B96B88470020E860A876A88220279A
:2097A00013E018202856002804D1122013490856002802D02000B96A8847002028762861C4
:2097C0001027002E01D56862A86203F008F839002800FFF7D1F9002E03D06989200002F061
:2097E000C8FFF1BD0A49086070470A49086070470949086070470000E4140020D81300207C
:20980000F0140020F4140020581100205811002000150020E814002004150020FAB583B07E
:20982000050014000026F6430A9F002F0BD0B7421DD100966846037C03992800FFF707FC96
:209840003AE003F00EFE00966846037C220003992800FFF7FCFB0028F3D12800FFF76CFEE5
:20986000002801D1200027E003F0FBFDF5E7B348006A019000966846037C22000399280061
:20988000FFF7E5FB00280BD003F0EBFDAB48006A0199401A8742EDDA30000DE003F0E1FD45
:2098A0002800FFF749FE002805D0A449096A019A891A8F42F2DA201A05B0F0BDF5B58BB08A
:2098C0000C00E01CFFF7CEFE0C990968242900D32421814200D9010001916678A7780029EE
:2098E00063D0242102A8FEF7EFF800BF38A002A90CC80CC10B9D303502AC28782070F007A5
:2099000018D5802F59D1802060702120E07020222021201DFEF7B8F86869C568280003F002
:209920001FFF0200212A00D3202229005042201824302FE0002F40D120221C21200008303A
:20994000FEF7A2F868690668300003F009FF092800D308200200310020000830FEF7B6F8B4
:2099600068694668300003F0FBFE112800D310200200310020001030FEF7A8F8686985682A
:20998000280003F0EDFE0200052A00D30422290020342000FEF79AF8002000900123019A04
:2099A00002A9AB480078FFF752FB0C9800680199401A0C990860002008E00B98401C052114
:2099C0000170242141700021817001200DB0F0BD0080040220000000F4B58AB006000F00E5
:2099E000306905906846317801713C780020089006A968460079059A52689047082C05D1F4
:209A0000B81CFFF72FFE05003C7916E0282C07D1B81CFFF709FE0500F81DFFF723FE08E089
:209A2000A82C08D1B81CFFF7FFFD0500B81DFFF7FBFD040001E0002500240A98006800288B
:209A40007AD0002C04D10A9800210160002073E006A98988FEF77CF8A04205D2040003D16A
:209A60000A980021016066E00698854206D3052070702120B0700020F0705CE0F768380085
:209A800006D000942B000122012168460079B847002002E002980399401802900298A04228
:209AA0002DD2281800900298231A04AA009968460079059FBF68B847039006A88088002857
:209AC0001BD00398002818D00346049A009968460079059FFF68B84700280ED1039F06A8E8
:209AE00080884743CC48009000233A00049958480078FFF793FEB842CCD001200890F768E9
:209B0000380006D000942B000022012168460079B8470298201A06A9898848430A990860E4
:209B20000898002808D0032070701120B0700020F07000F077FC01200BB0F0BDD0010020D4
:209B4000F4B588B0040008003821615C002903D007206070272025E021690391801CFFF713
:209B600063FD02906846012141712178017105A90079039A526890470898006805A989884A
:209B8000FDF7E6FF070001D100205EE005980299C919884203D302980599884207D30520FA
:209BA00060702120A0700020E07001204DE0E568280006D00097029B0122002168460079DC
:209BC000A8470025BD422BD27B1B04AA029968460079039E3669B047060005A880887043CA
:209BE00000908D4B0246049919484078FFF72AF9009988420ED102984119AD193300049A19
:209C000068460079039E7669B0470028DAD06078002808D103206070A0700020E07002E0A6
:209C2000684600214171E468200006D00097029B0022002168460079A047781B05A989888A
:209C40004843089908606846407909B0F0BD000044170020F0B595B005000C002869039009
:209C6000684629780172A07880073AD5A01CFFF7DBFC0600E01DFFF7F5FC0190002830D048
:209C8000019B6A4631006846007A039CA468A04704002300009A31006846007A039FFF686A
:209CA000B847002812D0032068701120A8700020E87014E0402204A90098FEF7B7F9002877
:209CC0000DD1009840300090641ED9D00023402204A952484078FFF7B5F84028EAD0012079
:209CE00000E0002015B0F0BD70B588B002003120105C002806D1022050703A20907000207B
:209D0000D07031E00E68002E30D0152E00D3142601A91078126952689047102103A8FFF7EE
:209D20006FFC03AC0199201DFFF76AFC01ADA88880218904014320000830FFF761FC019941
:209D400020000C30FFF75CFCA98810342000FFF757FC002000900123320003A92F480078DA
:209D6000FFF75CFDB04201D0012000E0002008B070BDF0B587B006000D00170003A80C21ED
:209D8000FDF7A2FE03AC0B2020700820E070A87885098006800E01D03F2833D13868002887
:209DA00037D032693820305CC001A07001A93078526890470199201DFFF722FC01A88188CC
:209DC00020000830FFF71CFC3E680D2E00D30C261248002D01D1002104E00021012D2170F9
:209DE00000D1E17100910023320003A90078FFF715FDB04201D1002000E001203968891B04
:209E0000396006E0052070702420B0700020F070012007B0F0BD0000B80B00004417002017
:209E200070B5040025001035207801264021615C002905D04020002121544120265403E000
:209E40004121615C002909D0002621352E70022060703A20A070E670002070BD2968896945
:209E60008847002807D12121695C00290FD1022161703A2108E0012809D12121695C002999
:209E800005D1062161702821A1700026E67021352870300070BDF5B585B00C001E000C9F1F
:209EA0000269002500200121039121780291002974D0C91E27D0491F4ED00A3926D00839C5
:209EC00021D0491E6AD0C91E68D0491F27D0891E22D0C91E48D0891E52D0491F5ED014392E
:209EE0001DD0C91E1BD0091F19D0C91F012916D9093914D04E3939D013394FD0891E13D0E6
:209F0000491E1AD049E00225207947E002252079864210D206000EE0022508204FE00225DD
:209F2000E01DFFF79FFB39E0022508342000FFF799FBB04243D9300041E00225694605989C
:209F4000007852689047A01DFFF784FB694689889822520089181EE0022569460598007870
:209F600052689047207914E002250AE0022569460598007852689047A01DFFF755FB08E04B
:209F8000012569460598007852689047E01DFFF769FB6946898848430BE00390029908295A
:209FA00007D0282905D02A2903D0A82901D0BE2905D1059931310978002900D100203860EC
:209FC00006980570039807B0F0BDF6B585B01D00614C217D884201D3012085E0C100081822
:209FE000C00042490818039005980830FFF727FB060001D1002706E00598007B000601D59D
:20A00000022700E0012702A80090330001AA05990F310398FFF73FFF0090002106980830C3
:20A02000FFF7F6FA002006990873009900295AD0002F10D169460979002901D1E0754DE056
:20A0400069460979022903D06946097901294AD10121E17542E0022F08D16946097900295D
:20A060000FD10421E175286031002EE0012F3AD169460979002914D10221E1752860310012
:20A0800023E069460979022904D10299B14221D2042015E069460979012924D10521E17526
:20A0A0001CE069460979022902D10321E17515E069460979012916D10299B1420AD2022038
:20A0C000E075029828600298311A06980830FFF79FFA08E08E4203D1E0750298286002E0DA
:20A0E0000120E0752E60009807B0F0BDC0170020FCB589B00E000F36CA7B0092097B80222F
:20A1000011400291002769460F710125C1000818C000AE490C180098032828D103A800BFFD
:20A120008AA11422FDF7E6FC0A98002816D003A861788170A1780173E1784173009701236E
:20A140000A9A03A904480078FFF768FB0A99884200D100250A9702E0441700200025EDB26D
:20A16000012D00D0BCE0684601210171C2E0122806D10AAA31002000FFF7A0FB0500EEE7E0
:20A180002000FFF74DFE0028EDD0636B180006D00AAA3100200098470500FF2DDFD10025D3
:20A1A00000980028DBD0082800D182E01A283CD01B2811D01E2826D0232842D0252845D064
:20A1C000282876D02A287DD02F2800D183E05A2831D0A8286DD026E030798607B60FA26824
:20A1E000100002D0310020789047002E07D0022E05D001D3032EB2D14120275472E04120BC
:20A20000012121546EE06168080003D03279D007C00F88473020205C052863D00520607074
:20A220002420A070E77001259DE70AAA31002000FFF79FFDA2E70AAA31002000FFF799FD18
:20A240009CE70AA92000FFF74FFD97E73120205C002806D1022060703A20A070E770012543
:20A260007DE70A98002800D179E7092801D3082500E0054603A92078226952689047039926
:20A28000491E05A8FFF7BCF903A8818805A8001DFFF7B6F9009701232A0005A98F480078FA
:20A2A000FFF7BCFA0A99884201D1002552E7012550E70298002815D00AAA31002000FFF756
:20A2C0008BFB5BE7029800280CD10AAA31002000FFF736FC52E731002000FFF7BBFC4DE77F
:20A2E000002D06D16846012101716770A770E77000E001250998057368460079002820D075
:20A300000A9800281DD0014609980830FFF780F9724C2078FFF74DF8002D12D00298002895
:20A320000FD100F079F88A4D02E0012002F066FA08206178CA00511AC900691808560028AA
:20A34000F3D1684600790BB0F0BD0000700000000000000A00000000000000000000000030
:20A3600038B50178090242781143744A914203D0784A914215D027E0584C0179A27891426E
:20A3800022D1817800291FD1807900281CD10025E5826078FFF701F800212078FEF7FDFFAD
:20A3A00033E04E4C0179A27891420DD1817800290AD18079012807D1207D401E60750022C2
:20A3C00001211534200023E0012032BDC017002038B50179427914020C4301780902407825
:20A3E0000143684881420ED13C4D2878FEF75DFC844204D06878FEF758FC844203D1A87DCE
:20A40000002800D001E0012032BD012200210020FEF732FD002032BD80B530484078FEF762
:20A42000C8FF01BD80B5002000900123002200212A480078FEF70BFE01BD0000F1B50125D9
:20A44000264C207E00281FD1257603212000FDF73BFB902149004648FDF736FB20214A484B
:20A46000FDF732FB0D21201DFDF72EFB402120002830FDF729FB0020606120622100183175
:20A4800020007030FFF750F9FFF71AF907003F4920006830FEF72DFE78013D490E182C36C6
:20A4A0000820F070062030715020707100980078012181400098407885400D43358000BF30
:20A4C00007A002F02CFFF07132483061200000990322FDF7FBFAA770F1BD00004417002045
:20A4E0004D534420696E7465726661636500000070B5050018490E7D701C0875F0008019FF
:20A50000C0001B490C1826702000103029003022FDF7F0FAE86A6064291D30002A6812680C
:20A5200090472000FFF77CFC70BDC1000818C0000F4908184030012101707047FF21000096
:20A54000C1000818C0009B49081841300078704758110020FEA1000044170020C100081832
:20A56000C0009449081841300021017070470000C0170020C2001018C0008E4A1018C160A2
:20A580007047000001020000E0180020D1A30008D813002061A30008F0B583B00500002752
:20A5A0000197854C606A002801D027626762FEF747FF8007800F022856D1A07D002800D066
:20A5C000D0E06078002D36D06423402221002831FEF746FC01003ED01F2800D0B7E0774DA5
:20A5E0001F22210028312800FDF784FA2800FFF726F87349884200D0ABE0281D210008314A
:20A6000002680A6001AB221D2900687BFFF7DDFC002853D0019B221D2900687BFFF768FD13
:20A62000002800D1A1E00225E07D28422CD0FFF7F3FE644E1FE00025ED432B00402221001B
:20A640002831FEF70DFC0028C4D12B00002200216078FEF705FC216A080000D185E00020C1
:20A660008847002800D180E0E7820025514E8BE0012002F0C3F808206178CA00511AC9004D
:20A68000711808560028F3D1E07D400710D52078FEF78FFE4B4E02E0012002F0AFF80820E7
:20A6A0002178CA00511AC900711808560028F3D1E07DC00700D52574E77536E0287B000683
:20A6C00012D4A86800280FD0FFF7A6FE3D4E08206178CA00511AC90071180856002814D066
:20A6E000012002F08BF8F2E72078FEF762FE354E02E0012002F082F808202178CA00511A16
:20A70000C900711808560028F3D1687B217D884209D2C1000818C000264908180521417070
:20A7200020218170C770012020742749201DFEF76FFF0025ED43009700230D22211D2078D7
:20A74000FFF76CF80D2810D0A842F4D10DE0002808D40120A0752078FEF72BFE6078FEF731
:20A7600028FE02E0012002F049F8002019E0E8004019C0003018412147540069C169080083
:20A7800001D0280088476D1C207DEDB28542EED3216A080001D0012088470120606200204D
:20A7A000C04303B0F0BD000080B50020FFF7F4FE02BD0000C017002044170020E0180020B0
:20A7C00055534243581100205553425338B472B6A54A90680021117162B6002823D001684C
:20A7E000002920D043694C699C421CD100E021000C68002C02D065699D42F8D072B6036899
:20A800001469844200D11361026A13601A6201620A680260002A00D01062086038200A00E8
:20A82000393212780A5462B631BC7047F8B500278D4C67700120207072B6E06B010004D08C
:20A840008047E76367633820275462B602F090FF0078CD2802D07D2002F090FFA068002824
:20A8600007D0C16B002904D009680A0001D0406888473120205C002809D0A0683830302186
:20A88000615C01702079002801D0FFF79FFFA068002805D0017C002902D1416B491C416331
:20A8A0002069002826D002E02868206162B672B62569002D41D02E7C002E3ED070070FD5B1
:20A8C000E868216A411A012906DA280000F090F8287C002804D10DE0616A411A00D560624D
:20A8E000FB2030401028DFD1A86880684068007C0028D9D172B620E02069002804D0686979
:20A9000021694969884218D3287C400710D5E868216A401A012806DA280000F069F872B697
:20A92000287C002809D0E868616A411A00D5606262B62D68002D72B6DED1607900280BD1D7
:20A940002069002832D02069007C0028206911D08068806840680DE06771206A8021C90577
:20A9600040186062E169080001D02000884762B6E568DFE7A060C06A0078CD2802D078207F
:20A9800002F0FCFEA068C16B002904D049680A0001D040688847A0683030017A3022A1546D
:20A9A0003122A1540168491C016006E03120275430202754A760277062B62000F2BD10B559
:20A9C000294C2078401E2070207800280FD1606800280CD072B606D001202070200002F04F
:20A9E0003BFF002020706078002800D162B610BD38B581681C4C002909D0226AC2600A6857
:20AA00004968002A00D051600A6000218160017C8907890F017413D12169002911D120615A
:20AA200001202178002906D12070200002F014FF0020207000E060716078002800D162B65D
:20AA400031BD42694B699342E9D38142E8D09A42F6D103001B68002BEED05D69AA42EBD11D
:20AA60008B42F7D1DBE70000D001002038B54169304C2278521C227022000C3200E01A0087
:20AA80001368002B02D05D69A942F8D3036002621060002B09D018625A698A4202D1392151
:20AAA000415C00E0002138228154017C002906D172B6FFF79DFF6078002800D162B6FFF7B3
:20AAC0007EFF31BD38B51B4C25782078401C2070200002F0C1FE25706078002800D162B647
:20AAE00031BD10B502F0E6FE12480121017002F03FFE040002F040FE011B2039012903DB00
:20AB0000CD222000FCF7B0FF10BD80B509490A6A80180A78002A04D062B60A6A121A07D510
:20AB2000FBE772B68968C86004200874FFF7CAFF01BD0000D001002038B5030008009C68E8
:20AB4000611C5D68A9420EDA1D682A550C009C60002809D081680A0006D0641C5A689442F2
:20AB600002D1884731BD996031BD10B5020093685468581C844200DA631E10680024C45497
:20AB800000290AD08C68200007D0002B05D05B1C5068834201DA0800A04710BDFFB581B057
:20ABA000002501270020C0431946FCF7D1FF0C9E0021C9438E4202D101210B9C04E00021BB
:20ABC000FBE71700641E761E874204D2049A7A43039B9342F5D26846057020200AAA0A9B76
:20ABE0001370034202D068462D2203E09A0703D568462B22027003E05A0702D56A461070AA
:20AC0000641ED80605D5002903D026000024E4430DE0D8070BD406E0202202990198FFF790
:20AC20008BFF6D1C641E022C01DBA642F4DB6846007800280FD06846027802990198FFF73F
:20AC40007BFF6D1C07E0302202990198FFF774FF6D1C761E641E022EF5DA03983900FCF7B6
:20AC600077FF060003997843081A039038000499FCF76EFF070000BF97A0825D0299019807
:20AC8000FFF75AFF6D1C002FE7D10AA80078C0070AD5022C08DB202202990198FFF74CFF5D
:20ACA0006D1C641E022CF6DA280005B0F0BD70B584B0089C099D0A9E002A0296019505D584
:20ACC0002025254300955442220000E00094FFF765FF04B070BD0000F1B584B00E001400CF
:20ACE0000393002E10D0B16808000DD004988068401C049A5268904206D13000884703E0EF
:20AD000031000498FFF718FF2278641C002A07D131000498FFF729FF0498806805B0F0BD6C
:20AD2000252AEDD100230020022102E00200012010432278641C2D2AF8D02B2A02D108439C
:20AD4000C0B2F6E7202A03D1020004201043F7E7232A03D1020008201043F1E7302A03D18B
:20AD6000020010201043EBE7110030390A290CD200218D0069184900511830392278641C8D
:20AD80001500303D0A2DF4D301E00021C9432E2A11D12278641C1500303D0A2D0FD29D009A
:20ADA000EB185B00D318303B2278641C1500303D0A2DF4D303E0DB4301E02278641C6C2AB3
:20ADC000FBD0682AF9D0252A9AD0582A36D05F2A0CD0632A0ED0642A12D0702A4AD0732A7B
:20ADE00037D0752A1BD0782A28D001E02278641C304D4CE003980268001D0390D2B27FE7E5
:20AE0000039A1268039D2D1D039502930191C0B200900A2331000498FFF749FF74E7039A40
:20AE20001268039D2D1D039502930191C0B200900A2331000498FFF7B1FE65E7039A1268EB
:20AE4000039D2D1D039502930191C0B200901023EFE703980568001D0390002D00D153E74E
:20AE60002A786D1C002A00D14EE731000498FFF763FEF5E703990A68091D039108210291F3
:20AE80000021C9430191C0B200901023D1E72D68002D00D138E72F7A9742F8D102930191E2
:20AEA000C0B2009003AB00BF0FA2310004986D68A84729E7C80D002008B400B584B00090A7
:20AEC00001910020029005AB00216846FFF704FF049906B008470000303132333435363778
:20AEE000383941424344454639AB00089DAB0008AFAC0008F8B5070030480468304D012671
:20AF000014E0207A002810D06068B8420DD126722878401C2870207A401E2072000602D16C
:20AF2000200002F0D5FCFFF74AFDE468002CE8D1F1BD18B42349244A0A600021002200239C
:20AF400000241EC0103872B61C490A68C26008601B484078002800D162B611BC704738B581
:20AF60000400174D2878401C2870A868217A002902D1606001250DE06168814208D01021C6
:20AF8000200002F0B7FC207A0028F8D1A8686060257A6D1C2572FFF712FD280032BD80B581
:20AFA00007490A78521C0A70017A491E0172090601D102F08DFCFFF702FD01BD280D00201E
:20AFC000D0010020300D0020F5AE00087047FEE708B4024B9C4608BC6047C04683050020D8
:20AFE00070B5054C0425260C2000FFF7F1FFA4196D1EF9D170BD00BF0040000808B4024B2B
:20B000009C4608BC6047C0465D06002010B502F08BFC0400702002F0E7FD7021200002F00F
:20B0200068FD10BD70470000F1B586B06846002101720020C04303F052FD03AC6846007EC9
:20B04000CD2806D1022103A802F0ECFD2078617805E0032103A802F0E5FD6078A178090286
:20B06000401880B2C01D0490C01000904400AA480078002801D000270AE000BF43A1601C9E
:20B08000FCF763FC0700009838180190002F13D1200002F0D1FD009802F095FD68460621FA
:20B0A0000172007ECF2852D19C48407800284ED0062002F093FD4AE0009902F0B3FD0099FD
:20B0C000380002F0CBFD002402F0E8FD0099091A0D1B002803D0FF2DF6DD3F208543EE0090
:20B0E0000098814204D104984007400FC01F36188B48007801280CD18A480021C943016010
:20B1000003F085FD3300019802193919001903F0E2FD6846007ED52815D029006846007E33
:20B12000CF280CD17D484078002808D06019009A904204D10198001900224255491C01989B
:20B14000001902F045FD641900988442BCD1734C2078002802D16846007A20706846007E04
:20B16000D5280CD002F04CFD6846007ECF2806D16078002803D16846007A02F02FFD002F78
:20B1800002D03800FCF718FC07B0F0BD434D443A205F48616E646C654A54414728290000EA
:20B1A000F0B583B0032101A802F03CFD01A805784178807800020C1801202907090F884091
:20B1C00040100090661C00BF26A13000FCF7BDFB070009D1200002F02FFD200002F0F3FC8C
:20B1E000062002F0FBFC3BE0281126D12100380002F034FD002602F051FD211A8D1B002808
:20B2000003D0FF2DF7DD3F2085430098002803D06843800AFFF779FC29007019A04203D199
:20B22000B81900224255491CB81902F0D1FC7619A642E0D102F0E4FC0FE02100380002F05B
:20B24000F1FC0098002802D06043FFF7D7FE002038553100380002F04CFC3800FCF7ACFBDF
:20B2600003B0F0BD434D443A20546573744E6574000000001CB56C4603F02DFE208003F045
:20B2800008FDA07003F009FDE07003F00AFD207103F00CFD607103F00DFDA07103F00EFDEC
:20B2A000E0710821684602F024FC13BD80B5042002F09AFC8B4802F097FC8020000102F0B8
:20B2C00093FC01BD80B5042103A002F012FC00210020FDF717F801BD335AEAB800B589B005
:20B2E00020216846FCF7F0FBB7496846FCF70BFD68461C2101717C214171A1218171422115
:20B30000C171E1210172402141720C218172202102F0EFFB09B000BD48220020611500209F
:20B3200049220020341A002000B583B0684603F052FE0621684602F0DCFB03B000BD80B5F8
:20B3400003F055FE02F056FC01BDF0B5A3B001200190002500240421684602F063FC9B48AB
:20B360004068012813D1019411E040004010301A0199002903D0FA218900FCF767FDA10086
:20B3800002AA5050641C6D1C0098400800900098002836D0C007F6D501260D2D04D1022038
:20B3A00003F06EFE002607E00E2D02D1B848006802E0280003F064FE0021C9438842DED0A7
:20B3C000A91E022904D90B3902D00E390129D6D8002ECDD00600AF480078022801D13000FD
:20B3E000C6E7AD4F002807D1042280213800FCF797FEA8480121017038680028B5D5002028
:20B40000B5E7A10002A802F074FB23B0F0BD70B5A2B0002400250421684602F003FC9F48F9
:20B420000021C94301AE0DE0D20706D50A00042C00DA0268AB00F2506D1C641C009A520827
:20B440000092001D009A002AEED1A90001A802F050FB22B070BDF0B5C5B002A802F004FC76
:20B46000684602F001FC01200321029A0A4000D00020009A114000D0002054490F68002FF6
:20B480002BD00021C9438F4227D0002825D002980190009C80204000844200D904000098BD
:20B4A000001B0090039404AE0198FCF741FC05006F4039003000FCF726FC794F6F40361DD3
:20B4C0000198001D0190241FEED1039904A802F010FB00980028DCD102E0104602F073FBD9
:20B4E00045B0F0BDE32E000080B5FCF7DCF902F081FB01BD10B5C0B08024640022000021F0
:20B500006846FCF7CFFE7DE0F0B585B00024E44380277F002EA13800FCF717FA050004D130
:20B520008620400002F088FB49E0390002F07AFB042102A802F076FB082103A802F072FB82
:20B5400000223900280003F00FFE0299884236D1082203A95348FCF769FD00282FD10024E6
:20B560002E000122210001A8FCF79CFE3078694609790140814220D1641C761CBC42F0D382
:20B5800028002030FCF7D4FB002816D02800FCF7CFFB040011D0042200216846FCF782FE31
:20B5A00000980021C943884201D0844205D139002800FCF78EFE040001D50024E44320006A
:20B5C00002F018FB05B0F0BD335AEAB8B00C0020434D443A205772697465204F54530000AA
:20B5E00080B58020400002F027FB002002F0F6FA01BD10B5C0B08024640022000021684634
:20B60000FCF78EFD2100684602F073FA40B010BDF0B583B00025ED438026B60122A1300044
:20B62000FCF793F9040003D1C64802F005FB2AE032000021FCF774FD77093900200002F027
:20B64000F1FA0421684602F0EDFA082101A802F0E9FA00223900200003F086FD0099884258
:20B660000ED1082201A90F48FCF7E0FC002807D131002000FCF7F6FD050001D50025ED438A
:20B680002000FCF799F9280002F0B4FA03B0F0BDE41A0020472200203C1A00209C0C0020F8
:20B6A000A5A5A5A57CB90008434D443A20577269746520636F6E66696700000080B5802015
:20B6C000400002F0B9FA01BDF0B5DBB00027012102A802F0A7FA684602F0C6FA6846007A89
:20B6E000002812D06846007A022842D180277F00082103A802F096FA082203A9AB48FCF7A3
:20B7000095FC002804D0002017E18027BF01EFE78DA13800FCF719F90190002801D03E0014
:20B7200003E0802676001AA80190380002F062FA00243500BE4200D93D006846007A002872
:20B7400005D12A0021000198FCF7EAFC04E02A0021000198FCF7A6FD2900019802F0C9F982
:20B7600064197F1BE5D101981AA9884200D1E7E0D0E06846007A01286BD10098802189013E
:20B78000884200D0C9E000BF6FA16E48FCF7DDF8040023D000990C3102F044FA0022009961
:20B7A000200003F0E1FC050000982018FCF7C0FA854208D1082200982118091D6FA0FCF754
:20B7C00035FC002802D00020C04303E000992000FCF748FD02F00EFA20009BE005A8FCF712
:20B7E000D5FCFCF7C3FC00240025009E80204000864200D9060031001AA802F013FA2A003C
:20B8000031001AA803F0B0FC0500320021001AA8FCF7D5FCA4190098801B0090E5D10C2155
:20B820001AA802F0FFF91AA8FCF782FAA84208D108221AA9091D00BF50A0FCF7F7FB002899
:20B8400002D0FCF793FCFF4305A8FCF794FC380074E06846007A0328009864D1802149008C
:20B8600088425AD13FA186204000FCF76EF8060053D000990C3102F0D5F90022009930000A
:20B8800003F072FC050000983018FCF751FA854209D1082200983118091D00BF37A0FCF7C9
:20B8A000C5FB002802D00020C04330E0009F002435000122210002A8401CFCF7F3FC2878D7
:20B8C0006946497A014081421FD1641C6D1CBC42EFD330002030FCF72BFA002815D0300064
:20B8E000FCF726FA040010D00422002101A8FCF7D9FC01980021C943884201D0844204D19D
:20B9000039003000FCF7E5FC01E00020C04302F071F93000FCF750F812E000980C3002F067
:20B920008BF9002009E0002801D00C3000E008200090009802F080F90120C04302F05AF941
:20B940005BB0F0BD0C200000434D443A2048616E646C65204F5453582F436F6E666967583E
:20B9600000000000434D443A2048616E646C65207365637572697479000000004944534590
:20B980004747455280B50020C04303F0A8F80321684602F047F9684641780078C2001018CA
:20B9A0008000BE4A101803F0D9FD01BD7CB90008F1B586B00024FBF735FF0490FBF72FFF39
:20B9C0000390054600266946002039E00698002853D150E00098401B871B0FD0103406980B
:20B9E00000280BD1A81902F0A4F8380002F0A1F8002002F09EF8002002F09BF8103400257B
:20BA00000298002803D0FCF7ECF9451C6419069800280FD1009802F08CF8019802F089F81B
:20BA2000012002F086F8280002F083F82900029802F06AF8009D019E002EC4D069462800F4
:20BA4000FBF7F3FE01980028C4D1A8190399049A8F188742BAD0103406990029B6D102F033
:20BA600068F8781B801B02F064F8002002F061F8002002F05EF802F0C3F8200007B0F0BDE6
:20BA800080B50121684602F0CDF868460078002802D0012804D001BD012002F0ABF801BD9B
:20BAA000FBF7BDFE02F045F8FBF7BCFE02F041F8FBF7EDFE0120FFF77BFF02F03AF8002021
:20BAC000FFF776FFFBF7E9FE01BD00B583B0012101A802F0A7F80090002811D1684600795F
:20BAE000FE2803D0FF2804D1022004E09A48007801E003F07BFD00900421684601F0F9FF59
:20BB000003B000BD80B50221684602F08BF8684600889249884202D168460021018068468E
:20BB20000188FA208000484303F072F801BD80B503F07CFD01BD80B503F07CFD01BD00007E
:20BB4000F0B583B0012102A802F06CF80421684602F068F8042101A802F064F8002848D466
:20BB600000980199014344D0019FFBF79CFEB84202D2FBF798FE07001FA13800FBF7E5FEE5
:20BB8000040002D100F04AFA33E0AA223900FBF76BFF019D2E00BD4200D93E00AD1B6846CE
:20BBA000007A642802D0652807D011E03100200002F038F800280DD518E002F075F800285C
:20BBC000FBD1009820603100200002F001F801E000F024FA002DDDD16846007A652801D1F4
:20BBE00002F00EF80098401E0090D2D12000FBF7E3FE03B0F0BD0000434D443A2054657377
:20BC000074206E657400000010B582B00124012100A8401C02F006F80121684602F002F85B
:20BC2000022002F009F8002813D1684640780002694609780843FF21891C884205D09849BB
:20BC4000884202D09749884200D1974C200001F0D1FF13BD80B50421684601F0E3FF6846B0
:20BC600081780902C2781143FF22921C914205D08B4A914202D08B4A914202D1007803F05B
:20BC80001BFE01BD002005490A3104220B88002B00D0401C2431521EF8D17047501A002045
:20BCA00001000020C64A0A3213888B4205D0401C24320428F8DB0020C0437047FFB583B068
:20BCC0000224BF4D0027002628000A30018800291ED1F000801980002C18049820600598DC
:20BCE00060606846007E20720CA800786072684680896081B348006AE060684601F0EDFE01
:20BD00000098206101986061300002F0E8FE20E0761C2430042ED9DBAA48006A0026290031
:20BD20000C31BC4B8A1E1288002A0CD00A68821A9A4208DB300003F0FBFEF0008019800085
:20BD40002818478103E0761C2431042EEADB641EB9D107B0F0BD000049220020FFFF000021
:20BD600070B59AB0012102A801F05CFF042105A801F058FF042104A801F054FF012101A842
:20BD8000C01C01F04FFF012101A8801C01F04AFF022101A801F046FF6846007A642802D05F
:20BDA000652829D04EE068468088002815D19A480188491C0180684681808088FFF770FF9E
:20BDC0000028F4D56846807900906846C379049A05998088FFF772FF34E068468088FFF7E6
:20BDE0005FFF00282ED4C10008188000744908187449096AC16025E068468088FFF750FF2C
:20BE000004001FD4E000001980006D490D1800266E81A869002802D0FBF7CEFDAE61E8699A
:20BE2000002802D0FBF7C8FDEE61200003F080FEFFF728FF002805D103F069F896480670AE
:20BE400001F084FF06A803906846818803A8FBF735FF042103A8FBF731FF102103A8FBF7E5
:20BE60002DFF042103A8FBF729FF0024544D102229000398FBF72AFE039810300390641CE9
:20BE80002435042CF3DB03F026F8010003A8FBF71CFF21010C3106A801F02BFE1AB070BD63
:20BEA0000103000001060000FF05000030B583B0022100A8801C01F0B5FE002401AD19E085
:20BEC0000221684601F0AEFE022101A801F0AAFE0221A81C01F0A6FE0221281D01F0A2FE1A
:20BEE0000221A81D01F09EFE01A96846008804F0F4F8641C684640888442E1DB03B030BDF5
:20BF000070B566480078002808D065480078002804D12C48006AA049884201DA03F066F8F7
:20BF20009E4E34689E4D012C24DB08D12869401C2861642803DA002004F0AFF808E00020E7
:20BF400004F09FF8002028619648844200D10124641C34609448844219DB64212000FBF7D2
:20BF60006AFF002803D0002004F08BF80FE004F094F80CE0002C0AD5002004F08EF830682E
:20BF8000401E30608949884201D103F069F802F0A2FF8749884228680AD3A94988420CDAB5
:20BFA000002802D16868401C686028680A3005E0002802D06868401C68600020286070BD20
:20BFC000501A0020D001002038B59E4C2068401C20600A281AD19C480168491C016001205A
:20BFE000FCF790F900252560FFF78AFF6068401C60600A280AD16560A068401CA0600A2850
:20C0000004D1A560A5480168491C016004F003F831BD0000102700003C22002072B6002050
:20C0200004F04DF8FAE780B5FFF7F8FF01BD80B503F0F4FA0220FEF768FD03F0F3FA01BDD6
:20C0400080B503F0F3FA0220FEF75FFD03F0F2FA01BD704780B502F0ECFD02F022FE01F0F1
:20C06000BDFD01BD80B5CD20FEF7DEFF01BD80B5CE20FEF7D9FF01BD80B5CF20FEF7D4FFFC
:20C0800001BD80B5864801214170864801F0ECFD854801F0AFFD01BD4C2200204B22002021
:20C0A0004A22002010B584B00124E4431021684601F0B8FD009880282DD2052803D1019851
:20C0C00004F0A6F962E0082861D009285FD00A285DD00B2806D10198012858D10124734896
:20C0E000446054E00E2852D00F2805D17048406A01004BD0804731E0102803D16D480121CA
:20C10000017043E0112802D101F012FC26E0019902F0F0FF22E0C0214900884220D280395E
:20C12000884202D1019864492FE0491C884202D10198624929E0491C884206D16846008981
:20C14000FFF7AEFD02F0FAFC08E0491C88421ED168460089FFF7A4FD02F00EFD040016E08B
:20C160008031884213D27F39884207D168460089FFF796FD019902F0C9FC00240098C12156
:20C180004900884203D10198484908600024200001F030FD04B010BDC0D401004C1A002028
:20C1A0009C0C0020FFFFFF7FB30200000CFEFFFF4C04000070B50400414D2878002813D1CB
:20C1C000601F0FD0C2380DD0801F022805D90838012802D9C01E05D006E03A493A48007829
:20C1E00002F010FD012028701E2C04D3B92C01D2FFF714FF65342406A00D00BF37A108583E
:20C2000080473248006A00240025314E31000C31304A8B1E1B88002B0CD00B68C31A93424B
:20C2200008DB280003F084FCE800401980003018448170BD6D1C2431042DEADB70BD000084
:20C24000005C2605B80C0020E01A002070B5FFF727FD04001FD4E000001980001C490D1820
:20C2600000266E81A869002802D0FBF7A5FBAE61E869002802D0FBF79FFBEE61200003F0C4
:20C2800057FCFFF7FFFC002805D102F040FE0C48067001F05BFD200070BD0000E41A0020AE
:20C2A00061150020401A002010470400B00C0020F47B010846220020441A0020481A002037
:20C2C0004C22002040420F0049220020D0010020501A0020C02709007047000027C00008A3
:20C2E0000DB000082FC0000841C00008ADB2000805BB0008C1D9000875B2000827C000088A
:20C3000061BD0008ADBE000853C000086958010883C00008A5C0000827C0000827C0000809
:20C3200027C0000811B6000809B5000827C0000827C00008C9B6000827C0000827C0000836
:20C3400027C0000885B9000827C0000881BA000827C0000827C0000827C0000827C00008BA
:20C3600027C0000827C0000827C0000827C0000829B300084BB300080FB4000841BB000848
:20C38000F1E80008D5E9000875E80008CBBA000855C000084BEC00087BEC000843EC000802
:20C3A00073EC000865C000086FC0000879C0000827C0000827C0000827C0000827C00008B5
:20C3C000E9B4000827C0000827C0000827C0000827C0000827C000083BEC00086BEC00087F
:20C3E0002FBB000837BB00081DF6000825F6000827C00008B1D5000827C0000827C00008B8
:20C4000027C00008B3E80008F5B40008E1B50008C5B2000809BC000855BC0008F7240108B2
:20C4200027C00008DDB2000827C00008A1B100083FB3000827C00008F3B50008BDB6000819
:20C4400027C0000827C0000827C0000827C0000827C0000827C0000827C0000827C0000864
:20C4600027C0000827C0000857B4000827C00008F1B582B000240094A04E7068611CE2081F
:20C48000825C63075B0FDA40D20732D400E0491C8022D200914206D0CA08825C4B075B0F23
:20C4A000DA40D207F3D50D1B0098002807D194480068C068010000D0804701200090904874
:20C4C00000684768380007D0029B306802192900B0680019B84705E0FF22290030680019AD
:20C4E000FBF7C2FA2A0021007068FBF7BEFC641900E00C008020C0008442BED303B0F0BD3F
:20C50000FEB506000F007D4D687C002817D172B69024E4007DA12000FBF717FA286062B6F4
:20C52000002801D1774857E08021C900411869602100FBF7C7FA01202874687402E0287C8C
:20C54000002807D0B00A8002A8600298E860002028743EE0A8686C494118B14201D386422F
:20C560001DD20298FFF784FF654800680468200007D0029B2A688021C900A868A047002889
:20C580002AD400240120287481022868FBF79AFA8022D20000216868FBF796FC14E0301AFC
:20C5A00000908020C0000099441ABC4200DD3C002200019900982B681818FBF787FA2200D1
:20C5C00000996868FBF751FC36190198001901903F1B002FB3D1002003B0F0BD7CB5474DCF
:20C5E000687C00283FD08020C00000220721D3086C68E35C14000C40E340DB0734D5404E8C
:20C600003068C068010002D0804704002AD4E868FFF72EFF30680468200007D0EB682A686B
:20C620008021C900A868A04704001BD400243068C068010001D080470400012028748102E5
:20C640002868FBF73FFA8022D20000216868FBF73BFC002C06D42A4E30684069010001D000
:20C6600080470400200076BD521C401EBFD10024E3E738B5214C607C00280AD08025ED0088
:20C6800029002068FBF71EFA2A0000216068FBF71BFC00201A49096889680A0000D0884735
:20C6A00032BD38B503000C0015480168CD69280003D021001800A84732BD0020012B05D15F
:20C6C0008B69190002D011002000984732BD10B50A4C607C002810D009480068006901005A
:20C6E00000D080472068002803D072B6FBF764F962B614212000FBF7E7F910BDA4190020C0
:20C7000098190020FFFEFFFFFF030000564D53443A20466C617368536563746F724275663C
:20C720000000000012420FD0814202D25318984203D310B5FBF7CAF908BD80185B1E197833
:20C74000401E0170521EF9D17047FEE770B500242C4E3500C0352B0001220421600000195B
:20C76000C000301803F062FE641C2D1D082CF2D370BD10B582B0009141000818C00021495B
